:020000040000FA
:08000000803102288731FD2F39
:100EE6002F0096019701980199019A019B0108002C
:100EF600623031008D008F01910102309300920122
:100F0600080087317327873187318D2787318731ED
:100F16007B2708002000960197019801F030910088
:100F2600FF309200FF309300FF303E00CE00FF30CE
:100F3600C300F030B800E501C4010F30B900CF019D
:100F4600BA01C501D001FF30BB00FF30C600FF303B
:100F5600D100080087318427873103102000161C32
:100F66000314031CB92F20001614BB2F20001610E3
:100F7600A330F0005530890BBE2FF00BBE2F0000BA
:100F860003102000961C0314031CCC2F200096147B
:100F9600CE2F20009610A330F0005530890BD12FAC
:100FA600F00BD12F000003102000161D0314031CA4
:100FB600DF2F20001615E12F20001611A330F000B8
:100FC6005530890BE42FF00BE42F000003102000AE
:100FD600961D0314031CF22F20009615F42F2000F3
:100FE6009611A330F0005530890BF72FF00BF72F31
:0A0FF6000000B02F20008731AD2F5E
:020000040001F9
:0A000E00EC3FFF3F9F3FFF3FFF3F25
:00000001FF
