:020000040000FA
:08000000803102288731E22F54
:100856003C00100E890C013908002F009601970103
:10086600980199019A019B010800623031008D00C0
:100876008F0191010230930092010800FE001200E0
:100886001E000130FE020030FF3B7F087E04031984
:100896000034422C01302500900011308F00910168
:1008A600C2308D008C012E009010F03025008E0095
:1008B6000800F300730821009E0093171313131406
:1008C600000021001318642C0D08F1000C08F0003C
:1008D60008008431302484318431C2248431843147
:1008E6003824843184319124843184317E248431C6
:1008F60084314D2408000A303C0091000C309200EF
:100906000C3093000C3094000C30950002309600A9
:1009160097019801990186309000080022008E0107
:100926008F0190019101920193018D0121009E0199
:100936009B0194019501960197019A0199019801ED
:10094600843093009D010800F401F501701CAF2C62
:100956007208F4077308F53D0130F235F30D890B83
:10096600B02C0130F136F00C890BB52C70087104EF
:10097600031DA92C7508F1007408F000080020007A
:1009860096013F309700FC309800FF309100C03050
:10099600920003309300FF303E00CE00FF30C300CC
:1009A600DF30B800E501C401B901CF01BA01C501C4
:1009B600D001FF30BB00FF30C600FF30D10005304C
:1009C6003D009C0008000D3400340A340034153410
:1009D60000341D3400341834003417340034243401
:1009E6000034163400340C3400340C34003415341E
:1009F60000340A34003412340034173400342434FA
:100A060000340D3400340A340034153400342334F1
:100A1600003402340034033400340434003409341E
:100A2600003401340034003400340334003402341A
:100A360000342434003402340034033400340434E3
:100A46000034FA007A08F600F7017608F000770815
:100A5600F1000730F2000030F3008431A72485311D
:100A6600ED30F8002230F90070087807FB007108B5
:100A7600793DFC007B0886007C088700010C20007D
:100A8600031C1811031818150130FB070030FC3D34
:100A96007B0886007C088700010C031C981103184C
:100AA60098150130FB070030FC3D7B0886007C086A
:100AB6008700010C031C9711031897150130FB07DB
:100AC6000030FC3D7B0886007C088700010C031C77
:100AD6009710031897140130FB070030FC3D7B0884
:100AE60086007C088700010C031C171003181714D6
:100AF6000130FB070030FC3D7B0886007C08870040
:100B0600010C031C1813031818170130FB070030DB
:100B1600FC3D7B0886007C088700010C031C17122D
:100B2600031817160130FB070030FC3D080001349E
:100B36000134013401340134013400340034013409
:100B460001340034003400340034013401340034FC
:100B560001340134003401340134013401340134E8
:100B660000340034013400340134013400340034DC
:100B760001340134013400340134013400340134C9
:100B860001340134003401340134013401340134B8
:100B960001340134013400340034003400340134AB
:100BA6000134013401340134013401340134013497
:100BB6000134013400340134013401340134013488
:100BC600003401340134013400340034013401347A
:100BD600013401340134003400340034013401346A
:100BE600003401340034013401340134013400345A
:100BF6000134013400340034013401340134013449
:100C06000134003400340034013401340134013439
:100C16000034013401340134013400340034013429
:100C2600013400340134013401340034003400341A
:100C36000034013401340034003401340134013409
:100C460001340034003401340034013400340134FA
:100C560001340134003400340034013401340134E9
:100C660000340134013400340134003401340034DA
:100C760000340034013400340134003401340034CB
:100C860000340134013401340034013401340134B8
:100C960000340034013401340134013401340134A8
:100CA600003400340134013400340034003400349C
:100CB6000134003401340134003401340134003489
:100CC6000134013400340034003401340134013479
:100CD600013400340034013401340134003400346A
:100CE600003401340034013400340134003400345B
:100CF6000134013401340134013401340134003447
:100D06000034013400340034013400340134013439
:100D16000134003401340134013401340034013427
:100D2600013400340134003400340034003400341B
:100D36000034003484316C24863120001711971654
:100D4600181698169817352F2000E601E70120009F
:100D5600E101E2016208803ADE0080305E02031D96
:100D6600B62E650861020318252F84312B2486319F
:100D7600003A0319252F043084315C24863170082B
:100D86002000DE007108DF000530DF36DE0C890B3F
:100D9600C82E5E08E0006008E50097166635443EFA
:100DA6008600870101088531242586315330890B59
:100DB600DA2E000020009813FA300032890BE02E5C
:100DC600200098176635463E860087010108853162
:100DD600242586315330890BEE2E00002000981210
:100DE600FA300032890BF42E200098166635483EFC
:100DF6008600870101088531242586315330890B09
:100E0600022F000020001812FA300032890B082F3A
:100E16002000181666354A3E86008701010885318E
:100E2600242586315330890B162F00002000971297
:100E3600FA300032890B1C2F01302000E107003008
:100E4600E23DAD2E01302000E6070030E73D6708A1
:100E5600803ADE0080305E02031D332F06306602C4
:100E6600031CAA2E043084315C24863170082000CD
:100E7600DE007108DF000530DF36DE0C890B3F2F00
:100E86005E08E0006008E50084312B248631013AD3
:100E96000319A72E84312B248631003A031D352FE2
:100EA6002000E801E9012000E301E4016408803A3A
:100EB600DE0080305E02031D622F650863020318A0
:100EC600D12F84312B248631013A0319D12F0430D6
:100ED60084315C24863170082000DE007108DF0052
:100EE6000530DF36DE0C890B742F5E08E0006008E3
:100EF600E50097166835203E860087010108853192
:100F0600242586315330890B862F00002000981344
:100F1600FA300032890B8C2F200098176835223E54
:100F26008600870101088531242586315330890BD7
:100F36009A2F000020009812FA300032890BA02F59
:100F4600200098166835243E860087010108853101
:100F5600242586315330890BAE2F0000200018124D
:100F6600FA300032890BB42F200018166835263E59
:100F76008600870101088531242586315330890B87
:100F8600C22F000020009712FA300032890BC82FBA
:100F960001302000E3070030E43D592F01302000E6
:100FA600E8070030E93D6908803ADE0080305E02DD
:100FB600031DDF2F0B3068020318352F562F9A308A
:100FC600840085308500ED308600223087000130B0
:100FD600FF000330843141248731E63084008430B9
:100FE600850020308600003087000030FF003E304C
:0A0FF60084314124200086319D2E35
:020000040001F9
:0A000E00EC3FFF3F9F3FFF3FFF3F25
:00000001FF
