:020000040000FA
:08000000803102288731E22F54
:100066002F0096019701980199019A019B010800BA
:10007600623031008D008F019101023093009201B0
:1000860008008031332080318031B52080318031C5
:100096003B20803180316C200800FE0012001E00DB
:1000A6000130FE020030FF3B7F087E040319003456
:1000B6005128F300730821009E009317131313149D
:1000C60000002100131864280D08F1000C08F00048
:1000D600080022008E018F01900191019201930187
:1000E6008D0121009E019B019401950196019701C6
:1000F6009A0199019801843093009D0108001734F4
:100106000E3420342434153418340C3414340D349D
:100116000E3417342234183419340E3417340E348E
:1001260017341D341B341C340E341D342434F401AE
:10013600F501701CA2287208F4077308F53D01301A
:10014600F235F30D890BA3280130F136F00C890B3B
:10015600A82870087104031D9C287508F10074080E
:10016600F00008002000960197019801F0309100F8
:10017600C030920003309300FF303E00CE00FF30C7
:10018600C300DF30B800E501C401B901CF01BA01EF
:10019600C501D001FF30BB00FF30C600FF30D100E3
:1001A6000800740875040319FB28F901F90AF51B00
:1001B600E6280130F435F50D890BDD280130F8000D
:1001C6007808F907DA2875087702031DEC28740801
:1001D6007602031CF2287408F6027508F73B013014
:1001E600F536F40C890BF3280130F902031DE628D5
:1001F6007708F5007608F4000800F901FA0174089A
:10020600750403192F29FB01FB0AF51B142901307C
:10021600F435F50D890B0B290130F8007808FB073A
:1002260008290130F935FA0D890B15297508770269
:10023600031D1F2974087602031C26297408F6027A
:100246007508F73B79140130F536F40C890B27292C
:100256000130FB02031D14297A08F5007908F40021
:100266000800FA007A08F600F7017608F000770829
:10027600F1000730F2000030F30080319A2081311E
:10028600ED30F8002230F90070087807FB0071089D
:10029600793DFC007B0886007C088700010C200065
:1002A600031C1811031818150130FB070030FC3D1C
:1002B6007B0886007C088700010C031C9811031834
:1002C60098150130FB070030FC3D7B0886007C0852
:1002D6008700010C031C9711031897150130FB07C3
:1002E6000030FC3D7B0886007C088700010C031C5F
:1002F6009710031897140130FB070030FC3D7B086C
:1003060086007C088700010C031C171003181714BD
:100316000130FB070030FC3D7B0886007C08870027
:10032600010C031C1813031818170130FB070030C3
:10033600FC3D7B0886007C088700010C031C171215
:10034600031817160130FB070030FC3D0800013486
:1003560001340134013401340134003400340134F1
:1003660001340034003400340034013401340034E4
:1003760001340134003401340134013401340134D0
:1003860000340034013400340134013400340034C4
:1003960001340134013400340134013400340134B1
:1003A60001340134003401340134013401340134A0
:1003B6000134013401340034003400340034013493
:1003C600013401340134013401340134013401347F
:1003D6000134013400340134013401340134013470
:1003E6000034013401340134003400340134013462
:1003F6000134013401340034003400340134013452
:100406000034013400340134013401340134003441
:100416000134013400340034013401340134013430
:100426000134003400340034013401340134013421
:100436000034013401340134013400340034013411
:100446000134003401340134013400340034003402
:1004560000340134013400340034013401340134F1
:1004660001340034003401340034013400340134E2
:1004760001340134003400340034013401340134D1
:1004860000340134013400340134003401340034C2
:1004960000340034013400340134003401340034B3
:1004A60000340134013401340034013401340134A0
:1004B6000034003401340134013401340134013490
:1004C6000034003401340134003400340034003484
:1004D6000134003401340134003401340134003471
:1004E6000134013400340034003401340134013461
:1004F6000134003400340134013401340034003452
:100506000034013400340134003401340034003442
:10051600013401340134013401340134013400342E
:100526000034013400340034013400340134013421
:10053600013400340134013401340134003401340F
:100546000134003401340034003400340034003403
:10055600003400342000A201803144208231200082
:10056600C301C401C501C6010130B7000030B8009F
:100576000130AF000030B0000130B1000030B200F1
:100586000130B3000030B4000130B9000030BA00C9
:10059600A301A401A501A601981798161816971687
:1005A6001711222B98174A08813134218231533092
:1005B600890BDB2A000020009712FA300032890BE3
:1005C600E12A2000971649088131342182315330BF
:1005D600890BEB2A000020001812FA300032890B32
:1005E600F12A20001816480881313421823153300F
:1005F600890BFB2A000020009812FA300032890B82
:10060600012B20009816470881313421823153305E
:10061600890B0B2B000020009813FA300032890B4F
:10062600112B20008C1A222BA301A401723020006A
:10063600A000A130890B1D2BA00B1D2B0032200022
:1006460037033804031D2B2B230324040319D52A4F
:1006560098179816181697168C1A682B4308440490
:10066600031D682B45084604031D682B39033A040D
:10067600031D682B0A30F4000030F5000430803189
:100686005C208231700E0F39F600710EF039F604D7
:10069600710E0F39F7008031D420823175082000A1
:1006A600BC007408BB003C08A8003B08A70001304A
:1006B600C3070030C43D161462302000A000653028
:1006C600890B632BA00B632B003220008C1AA22B04
:1006D60043034404031DA22B45084604031DA22B15
:1006E60039033A04031DA22B0A30F4000030F5004A
:1006F600043080315C208231700E0F39F600710EA5
:10070600F039F604710E0F39F7008031D4208231AA
:1007160075082000BE007408BD003E08AA003D080A
:10072600A9000130C3070030C43D96146230200092
:10073600A0006530890B9D2BA00B9D2B003220005D
:100746008C1ADD2B023043064404031DDD2B4508BD
:100756004604031DDD2B39033A04031DDD2B0A3045
:10076600F4000030F500043080315C208231700ED8
:100776000F39F600710EF039F604710E0F39F700D5
:100786008031D420823175082000C0007408BF0073
:100796004008AC003F08AB000130C3070030C43D41
:1007A600161562302000A0006530890BD82BA00BEF
:1007B600D82B003220008C1A662C033043064404E2
:1007C600031D662C45084604031D662C39033A04AE
:1007D600031D662C0A30F4000030F5000430803129
:1007E6005C208231700E0F39F600710EF039F60476
:1007F600710E0F39F7008031D42082317508200040
:10080600C2007408C1004208AE004108AD000130C4
:10081600C3070030C43D961511302000A0003A30C1
:10082600890B132CA00B132C0000662C98175E085E
:100836008131342182315330890B1F2C0000200076
:100846009712FA300032890B252C200097165D0886
:100856008131342182315330890B2F2C0000200046
:100866001812FA300032890B352C200018165C0855
:100876008131342182315330890B3F2C0000200016
:100886009812FA300032890B452C200098165B0826
:100896008131342182315330890B4F2C00002000E6
:1008A6009813FA300032890B552C20008C1A662CCE
:1008B600B701B80172302000A000A130890B612C6D
:1008C600A00B612C0032200037033804031D6F2C67
:1008D600450346040319192C9817981618169716E7
:1008E6008C1AA42C43084404031DA42C4503460477
:1008F600031DA42C0A30F4000030F50004308031CA
:100906005C208231700E0F39F600710EF039F60454
:10091600710E0F39F7008031D4208231750820001E
:10092600BC007408BB000130C3070030C43D161478
:1009360062302000A0006530890B9F2CA00B9F2CF5
:10094600003220008C1AD62C43034404031DD62CF7
:1009560045034604031DD62C0A30F4000030F5008A
:10096600043080315C208231700E0F39F600710E32
:10097600F039F604710E0F39F7008031D420823138
:1009860075082000BE007408BD000130C3070030A2
:10099600C43D961462302000A0006530890BD12C2E
:1009A600A00BD12C003220008C1A092D02304306F0
:1009B6004404031D092D45034604031D092D0A3071
:1009C600F4000030F500043080315C208231700E76
:1009D6000F39F600710EF039F604710E0F39F70073
:1009E6008031D420823175082000C0007408BF0011
:1009F6000130C3070030C43D161562302000A00048
:100A06006530890B042DA00B042D003220008C1AB2
:100A16003C2D033043064404031D3C2D4503460488
:100A2600031D3C2D0A30F4000030F50004308031FF
:100A36005C208231700E0F39F600710EF039F60423
:100A4600710E0F39F7008031D420823175082000ED
:100A5600C2007408C1000130C3070030C43D9615BA
:100A660011302000A0003A30890B372DA00B372D0E
:100A76000000200025032604031D8F2D98174E081D
:100A86008131342182315330890B472D00002000FB
:100A96009712FA300032890B4D2D200097164D081B
:100AA6008131342182315330890B572D00002000CB
:100AB6001812FA300032890B5D2D200018164C08EA
:100AC6008131342182315330890B672D000020009B
:100AD6009812FA300032890B6D2D200098164B08BB
:100AE6008131342182315330890B772D000020006B
:100AF6009813FA300032890B7D2D20008C1A3C2D7C
:100B0600A501A60172302000A000A130890B892D15
:100B1600A00B892D00323C2D98179816181697169B
:100B2600D82D98175A088131342182315330890BD8
:100B36009A2D000020009712FA300032890BA02D62
:100B46002000971659088131342182315330890BA0
:100B5600AA2D000020001812FA300032890BB02DA1
:100B66002000181658088131342182315330890B00
:100B7600BA2D000020009812FA300032890BC02DE1
:100B86002000981657088131342182315330890B61
:100B9600CA2D000020009813FA300032890BD02DA0
:100BA60020008C1AD82DAF01B0012F033004031D8D
:100BB600E12D0230450646040319942D9817981620
:100BC600181697168C1A582F43084404031D582FDD
:100BD600023045064604031D582F28083C06031D0F
:100BE600F62D27083B06031DD62E2A083E06031DB2
:100BF600FE2D29083D06031DD62E2C084006031D92
:100C0600062E2B083F06031DD62E2E084206031D70
:100C16000E2E2D084106031DD62E41302000A000C1
:100C2600EE30890B142EA00B142E00002000310389
:100C36003204031D6C2E98175608813134218231F7
:100C46005330890B242E000020009712FA30003210
:100C5600890B2A2E200097165508813134218231BE
:100C66005330890B342E000020001812FA3000325F
:100C7600890B3A2E2000181654088131342182310E
:100C86005330890B442E000020009812FA300032AF
:100C9600890B4A2E2000981653088131342182315F
:100CA6005330890B542E000020009813FA3000327E
:100CB600890B5A2E20008C1A192EB101B201093067
:100CC6002000A0001C30890B662EA00B662E0000AB
:100CD600192E98179816181697160A30F400003031
:100CE600F500043080315C208231700E0F39F60039
:100CF600710EF039F604710E0F39F7008031D420E9
:100D060082312000220874067504031DB02EC3012B
:100D1600C401C501C6010130B7000030B80001307A
:100D2600AF000030B0000130B1000030B200013039
:100D3600B3000030B4000130B9000030BA00013011
:100D4600A3000030A40041302000A000EE30890B43
:100D5600AA2EA00BAA2E00008E2FC301C4010130BB
:100D6600C5000030C6000230B7000030B8000130C0
:100D7600AF000030B0000130B1000030B2000130E9
:100D8600B3000030B400B901BA010130A50000304B
:100D9600A60041302000A000EE30890BD02EA00B1B
:100DA600D02E00008E2F41302000A000EE30890B9F
:100DB600DA2EA00BDA2E0000200033033404031DC4
:100DC600322F981752088131342182315330890BE2
:100DD600EA2E000020009712FA300032890BF02E1E
:100DE6002000971651088131342182315330890B06
:100DF600FA2E000020001812FA300032890B002F5C
:100E06002000181650088131342182315330890B65
:100E16000A2F000020009812FA300032890B102F9A
:100E2600200098164F088131342182315330890BC6
:100E36001A2F000020009813FA300032890B202F59
:100E460020008C1ADF2EB301B40109302000A00067
:100E56001C30890B2C2FA00B2C2F0000DF2E98178F
:100E6600981618169716C301C4010130C500003044
:100E7600C6000230B7000030B8000130AF000030C5
:100E8600B0000130B1000030B2000130B3000030D4
:100E9600B400B901BA0141302000A000EE30890B40
:100EA600522FA00B522F00008E2F8C1A6C2F04305D
:100EB60043064404031D6C2F45084604031D6C2F8E
:100EC600BB01BC01BD01BE01BF01C001C101C20120
:100ED600772F8C1A8E2F043043064404031D8E2F61
:100EE60045034604031D8E2FC301C4010130C50707
:100EF6000030C63D161096101611961102302000CD
:100F0600A1004530A000A930890B872FA00B872FA1
:100F1600A10B872F00320A30F4000030F5000430B0
:100F260080315C208231700E0F39F600710EF03977
:100F3600F604710E0F39F7008031D420823174081F
:100F46002000A0002008B5000A30F4000030F500AB
:100F5600043080315C208231700E0F39F600710E3C
:100F6600F039F604710E0F39F70081310021823114
:100F760074082000A0002008B6001816971235083D
:100F8600813134218231A630890BC72F00322000EF
:100F960097163608813134218231200097161812AF
:100FA6003608813134218231A630890BD82F0032A0
:100FB600200018163508813134218231222BAA30BF
:100FC600840081308500ED308600223087000130B4
:100FD600FF0003308031502087318230840080301A
:100FE600850047308600003087000030FF0018304B
:0A0FF6008031502020008231AD2A26
:020000040001F9
:0A000E00EC3FFF3F9F3FFF3FFF3F25
:00000001FF
